:100000000C941A010C945C010C9437010C94370188
:100010000C9463040C9437010C9470010C94370118
:100020000C9437010C9437010C9437010C94660141
:100030000C9437010C9437010C9437010C94370160
:100040000C9437010C9437010C9437010C94370150
:100050000C943701000000000000005F0000000762
:10006000000700147F147F14242A7F2A1223130808
:10007000646236495522500005030000001C2241ED
:10008000000041221C0014083E081408083E08081D
:1000900000503000000808080808006060000020D8
:1000A000100804023E5149453E00427F4000426133
:1000B0005149462141454B311814127F10274545BF
:1000C00045393C4A494930017109050336494949D6
:1000D00036064949291E0036360000005636000013
:1000E00008142241001414141414004122140802AC
:1000F00001510906324979413E7E1111117E7F4935
:100100004949363E414141227F4141221C7F4949B4
:1001100049417F090909013E4149497A7F08080898
:100120007F00417F41002040413F017F0814224170
:100130007F404040407F020C027F7F0408107F3EDA
:100140004141413E7F090909063E4151215E7F0937
:10015000192946464949493101017F01013F404083
:10016000403F1F2040201F3F4038403F6314081489
:100170006307087008076151494543007F4141000A
:1001800002040810200041417F00040201020440E3
:1001900040404040000102040020545454787F48FD
:1001A0004444383844444420384444487F38545404
:1001B0005418087E0901020C5252523E7F08040472
:1001C0007800447D40002040443D007F10284400DA
:1001D00000417F40007C041804787C0804047838CF
:1001E000444444387C14141408081414187C7C0803
:1001F0000404084854545420043F4440203C4040E8
:10020000207C1C2040201C3C4030403C44281028CE
:10021000440C5050503C4464544C44000836410057
:1002200000007F0000004136080010080810080098
:100230000000000011241FBECFE5D4E0DEBFCDBF1B
:1002400010E0A0E6B0E0E4E8FBE002C005900D920B
:10025000AA38B107D9F720E0AAE8B0E001C01D92A2
:10026000A63BB207E1F70E9427050C94C0050C9449
:1002700000000E9464030E94FC020E9421028091FF
:1002800060000E94CE012FEF8FED90E12150804061
:100290009040E1F700C000000E9487048EB58C609A
:1002A0008EBD8CE097EB9BBD8ABD89B7806189BF0D
:1002B0001DBC1CBC0C94DF021F920F920FB60F9254
:1002C00011240F900FBE0F901F9018951F920F9240
:1002D0000FB60F9211240F900FBE0F901F9018951C
:1002E0001F920F920FB60F9211242F933F934F93AB
:1002F0005F936F937F938F939F93AF93BF93EF938E
:10030000FF9388E990E00E94CA0428E040E06DEA8B
:1003100070E088E990E00E949E01FF91EF91BF910B
:10032000AF919F918F917F916F915F914F913F918D
:100330002F910F900FBE0F901F901895CF93DF93C2
:10034000DC01E42FF0E091E0940F421748F4ED0156
:10035000CE0FDF1F8881E60FF71F8083492FF1CF73
:10036000E60FF71F80E28083FB01E90FF11D108289
:10037000DF91CF910895C49ABC9A8DB987B3806BF1
:1003800087BBC49A0895F8948FB9779BFECF789471
:10039000089583E783BFBB9AC39A08958CBF0895DD
:1003A00011B887E080B984E886BF089594EA96BFC3
:1003B00006B607FEFDCF91B1987F983021F09031BD
:1003C00011F081E0089583B984E886BF06B607FE80
:1003D000FDCF81B1887F883111F0803491F780E0C2
:1003E0000895F89483B984E886BF06B607FEFDCF6A
:1003F00081B1887F883219F4789480E0089581E093
:100400000895F89484EC86BF06B607FEFDCF789475
:1004100083B10895F89484E886BF06B607FEFDCF41
:10042000789483B10895F89484E986BF06B604FCF5
:10043000FDCF78940895F89411B885E080B9789448
:10044000089510BC85E089B988E98AB986E880BD3D
:100450000895FC019191992321F05D9BFECF9CB9F9
:10046000F9CF0895CF93DF93CDB7DEB765970FB679
:10047000F894DEBF0FBECDBF20E04AE031E0320F7E
:100480008823B9F0642F0E944105E1E0F0E0EC0F11
:10049000FD1FE20FF11D905D9083232FEFCF5D9B39
:1004A000FECFE1E0F0E0EC0FFD1FE20FF11D8081D7
:1004B0008CB92150F4CF0E946105862F0E94320230
:1004C0000E9432025D9BFECF8CB90895C19A8FEFD6
:1004D0009BE60197F1F700C00000C1989FEF2FE560
:1004E00083E0915020408040E1F700C00000C19AB5
:1004F0000895C498C2980E94C301C49A08958DE0DB
:100500000C9479028CE00C947902C498C29A0E94EF
:10051000C301C49A0895CF93DF93082E000C990B62
:10052000809725E0289FE001299FD00D1124FE012E
:10053000EC5AFF4F84910E948502FE01EB5AFF4F57
:1005400084910E948502FE01EA5AFF4F84910E9425
:100550008502FE01E95AFF4F84910E948502FE0147
:10056000E85AFF4F8491DF91CF910C948502CF938D
:10057000DF931F92CDB7DEB7806869830E9479024E
:100580006981862F80640F90DF91CF910C9479025E
:100590000F931F93CF938C01862F642F0E94B70275
:1005A000C0E0F801EC0FF11D8081882321F00E944A
:1005B0008B02CF5FF6CFCF911F910F910895CF930C
:1005C000DF9380E20E9479028CE00E94790280E849
:1005D0000E94790280E40E947902C8EFD1E080E0B5
:1005E0000E9485022197D9F780E80E94790280E471
:1005F000DF91CF910C9479020E94C90184E60E9498
:10060000CE0180E50E94BB0181E20E94790287B39E
:10061000866087BB88B3866088BB0E94660281E2E1
:100620000E94790284E10E94790282EB0E947902A1
:1006300080E20E9479020E94DF0242E06AE089E7DC
:1006400090E00E94C8028DE00E9479022FEF8FEBAC
:1006500091E2215080409040E1F700C000000C94EE
:10066000DF02CF93DF93CDB7DEB765970FB6F8946F
:10067000DEBF0FBECDBFBC0120E0EAE0F0E031E01C
:10068000320F6115710571F0CB01BF010E944D055C
:10069000A1E0B0E0AC0FBD1FA20FB11D805D8C9337
:1006A000232FEDCF1FEF120FE1E0F0E0EC0FFD1F65
:1006B000E10FF11D80810E948B021150F5CF86E081
:1006C00085BD80E489BF089581B381BB82B38FEF7C
:1006D00082BB0C945F0380E48BBF93E094BF8ABF1E
:1006E00008958BB78F7B8BBF8AB78F7B8ABF0895A6
:1006F00087991CC080918C0090918D0001969093F9
:100700008D0080938C0080918C0090918D004F978C
:10071000B4F080918A00816080938A0010928D00ED
:1007200010928C0081E080938B0009C010928D00A4
:1007300010928C0080918A008E7F80938A00869927
:100740001CC080918E0090918F00019690938F0035
:1007500080938E0080918E0090918F004F97B4F01F
:1007600080918A00826080938A0010928F0010929C
:100770008E0081E080938B0009C010928F00109250
:100780008E0080918A008D7F80938A0085991CC09D
:1007900080919000909191000196909391008093A8
:1007A000900080919000909191004F97B4F08091CB
:1007B0008A00886080938A001092910010929000C5
:1007C00081E080938B0009C01092910010929000FC
:1007D00080918A00877F80938A0084991CC08091D1
:1007E00092009091930001969093930080939200D1
:1007F00080919200909193004F97B4F080918A007D
:10080000846080938A00109293001092920081E09D
:1008100080938B0009C010929300109292008091F7
:100820008A008B7F80938A0082991CC080919400FB
:1008300090919500019690939500809394008091FB
:100840009400909195004097B4F080918A00806167
:1008500080938A00109295001092940081E080931A
:100860008B0009C0109295001092940080918A002C
:100870008F7E80938A0083991CC08091960090910E
:100880009700019690939700809396008091960030
:10089000909197004097B4F080918A008062809395
:1008A0008A00109297001092960081E080938B004E
:1008B0000895109297001092960080918A008F7D83
:1008C00080938A0008951F920F920FB60F92112401
:1008D0002F933F934F935F936F937F938F939F9348
:1008E000AF93BF93EF93FF930E947803FF91EF9133
:1008F000BF91AF919F918F917F916F915F914F9138
:100900003F912F910F900FBE0F901F9018950C9450
:10091000D001CF93DF93EC0180ED0E94D60180E0FF
:100920000E94F1019C819295907F8D818053892B4B
:100930000E94F1019A819295907F8B818053892B3F
:100940000E94F10198819295907F89818053892B33
:100950000E94F1018E8180530E94F1019F81929546
:10096000907F88858053892B0E94F101998592950B
:10097000907F8A858053892B0E94F1019B859295F7
:10098000907F8C858053892B0E94F101DF91CF915C
:100990000C9413021F93CF93DF93EC0180ED0E9420
:1009A000D60180E00E94F10181ED0E94D6010E94F3
:1009B0000102982F92959F70905D9E838F70805D4D
:1009C0008F831AE318870E940102982F92959F70D7
:1009D000905D9B838F70805D8C831D830E940102DC
:1009E00084FB992790F9905D98838F70805D89834F
:1009F0001A830E9401028F70805D89871A870E9486
:100A00000102982F92959F70905D9B878F70805DFB
:100A10008C871D870E940102982F92959F70905D90
:100A20009E878F70805D8F87188B0E940A02982F97
:100A300092959F70905D998B8F70805D8A8B80E21C
:100A40008B8B1C8ADF91CF911F910C9413020E9413
:100A50003901789481E690E00E94890442E06FE0D9
:100A60008DEA90E00E94C80263E08FE00E94B70226
:100A700043E06BE18FE690E00E94C8020E947F0293
:100A8000EDCF991B79E004C0991F961708F0961BCB
:100A9000881F7A95C9F780950895AA1BBB1B51E161
:100AA00007C0AA1FBB1FA617B70710F0A61BB70BDE
:100AB000881F991F5A95A9F780959095BC01CD0183
:100AC00008950E9468056894B1110C94BA050895C0
:100AD0000E949F0588F09F5798F0B92F9927B7512A
:100AE000B0F0E1F0660F771F881F991F1AF0BA95D2
:100AF000C9F714C0B13091F00E94B905B1E0089572
:100B00000C94B905672F782F8827B85F39F0B93F63
:100B1000CCF3869577956795B395D9F73EF4909584
:100B20008095709561957F4F8F4F9F4F089557FD2A
:100B30009058440F551F59F05F3F71F04795880F4B
:100B400097FB991F61F09F3F79F0879508951216E2
:100B500013061406551FF2CF4695F1DF08C016168E
:100B600017061806991FF1CF86957105610508943F
:100B70000895E894BB2766277727CB0197F9089556
:040B8000F894FFCF17
:100B84006438383431303031313430353136006006
:100B940043204D7973757275005265696E76656E82
:0A0BA40074696F4C61627320000059
:00000001FF
